{
  "contractName": "CleanEnergyVersion1",
  "abi": [
    {
      "anonymous": false,
      "inputs": [
        {
          "indexed": true,
          "internalType": "uint256",
          "name": "energyId",
          "type": "uint256"
        },
        {
          "indexed": true,
          "internalType": "uint256",
          "name": "billingId",
          "type": "uint256"
        }
      ],
      "name": "NewBilling",
      "type": "event"
    },
    {
      "anonymous": false,
      "inputs": [
        {
          "indexed": true,
          "internalType": "uint256",
          "name": "energyId",
          "type": "uint256"
        }
      ],
      "name": "NewEnergy",
      "type": "event"
    },
    {
      "anonymous": false,
      "inputs": [
        {
          "indexed": false,
          "internalType": "uint256",
          "name": "energyIdId",
          "type": "uint256"
        },
        {
          "indexed": false,
          "internalType": "string",
          "name": "energyType",
          "type": "string"
        },
        {
          "indexed": false,
          "internalType": "uint256",
          "name": "energyUnit",
          "type": "uint256"
        },
        {
          "indexed": false,
          "internalType": "address",
          "name": "prosumer",
          "type": "address"
        }
      ],
      "name": "getEnergyDetails",
      "type": "event"
    },
    {
      "anonymous": false,
      "inputs": [
        {
          "indexed": false,
          "internalType": "address",
          "name": "prosumerAccount",
          "type": "address"
        },
        {
          "indexed": false,
          "internalType": "uint256",
          "name": "balanceEnergyUnits",
          "type": "uint256"
        }
      ],
      "name": "getOwnerBalance",
      "type": "event"
    },
    {
      "anonymous": false,
      "inputs": [
        {
          "indexed": false,
          "internalType": "uint256",
          "name": "id",
          "type": "uint256"
        }
      ],
      "name": "returnconsumerid",
      "type": "event"
    },
    {
      "constant": true,
      "inputs": [],
      "name": "BillingId",
      "outputs": [
        {
          "internalType": "uint256",
          "name": "",
          "type": "uint256"
        }
      ],
      "payable": false,
      "stateMutability": "view",
      "type": "function"
    },
    {
      "constant": true,
      "inputs": [
        {
          "internalType": "uint256",
          "name": "",
          "type": "uint256"
        }
      ],
      "name": "availableEnergy",
      "outputs": [
        {
          "internalType": "string",
          "name": "energyType",
          "type": "string"
        },
        {
          "internalType": "uint256",
          "name": "energyUnit",
          "type": "uint256"
        },
        {
          "internalType": "bool",
          "name": "isActive",
          "type": "bool"
        },
        {
          "internalType": "uint256",
          "name": "unitprice",
          "type": "uint256"
        },
        {
          "internalType": "address payable",
          "name": "prosumer",
          "type": "address"
        },
        {
          "internalType": "uint256",
          "name": "unitbalance",
          "type": "uint256"
        }
      ],
      "payable": false,
      "stateMutability": "view",
      "type": "function"
    },
    {
      "constant": true,
      "inputs": [
        {
          "internalType": "address",
          "name": "",
          "type": "address"
        }
      ],
      "name": "balances",
      "outputs": [
        {
          "internalType": "uint256",
          "name": "",
          "type": "uint256"
        }
      ],
      "payable": false,
      "stateMutability": "view",
      "type": "function"
    },
    {
      "constant": true,
      "inputs": [
        {
          "internalType": "uint256",
          "name": "",
          "type": "uint256"
        }
      ],
      "name": "billingDetails",
      "outputs": [
        {
          "internalType": "uint256",
          "name": "energyId",
          "type": "uint256"
        },
        {
          "internalType": "uint256",
          "name": "energyUnit",
          "type": "uint256"
        },
        {
          "internalType": "address",
          "name": "consumer",
          "type": "address"
        }
      ],
      "payable": false,
      "stateMutability": "view",
      "type": "function"
    },
    {
      "constant": true,
      "inputs": [],
      "name": "consumerid",
      "outputs": [
        {
          "internalType": "uint256",
          "name": "",
          "type": "uint256"
        }
      ],
      "payable": false,
      "stateMutability": "view",
      "type": "function"
    },
    {
      "constant": true,
      "inputs": [
        {
          "internalType": "address",
          "name": "",
          "type": "address"
        }
      ],
      "name": "consumers",
      "outputs": [
        {
          "internalType": "uint256",
          "name": "consumerid",
          "type": "uint256"
        },
        {
          "internalType": "string",
          "name": "name",
          "type": "string"
        },
        {
          "internalType": "address",
          "name": "consumer",
          "type": "address"
        },
        {
          "internalType": "string",
          "name": "location",
          "type": "string"
        },
        {
          "internalType": "string",
          "name": "mobile",
          "type": "string"
        },
        {
          "internalType": "string",
          "name": "email",
          "type": "string"
        },
        {
          "internalType": "bool",
          "name": "isProsumer",
          "type": "bool"
        }
      ],
      "payable": false,
      "stateMutability": "view",
      "type": "function"
    },
    {
      "constant": true,
      "inputs": [],
      "name": "energyId",
      "outputs": [
        {
          "internalType": "uint256",
          "name": "",
          "type": "uint256"
        }
      ],
      "payable": false,
      "stateMutability": "view",
      "type": "function"
    },
    {
      "constant": false,
      "inputs": [
        {
          "internalType": "string",
          "name": "_name",
          "type": "string"
        },
        {
          "internalType": "string",
          "name": "_location",
          "type": "string"
        },
        {
          "internalType": "string",
          "name": "_mobile",
          "type": "string"
        },
        {
          "internalType": "string",
          "name": "_email",
          "type": "string"
        },
        {
          "internalType": "bool",
          "name": "_isprosumer",
          "type": "bool"
        }
      ],
      "name": "ConsumerRegistration",
      "outputs": [],
      "payable": false,
      "stateMutability": "nonpayable",
      "type": "function"
    },
    {
      "constant": false,
      "inputs": [
        {
          "internalType": "string",
          "name": "_engerytype",
          "type": "string"
        },
        {
          "internalType": "uint256",
          "name": "_energyUnit",
          "type": "uint256"
        }
      ],
      "name": "cleanenergyAvailable",
      "outputs": [
        {
          "internalType": "uint256",
          "name": "",
          "type": "uint256"
        }
      ],
      "payable": false,
      "stateMutability": "nonpayable",
      "type": "function"
    },
    {
      "constant": false,
      "inputs": [
        {
          "internalType": "uint256",
          "name": "_energyId",
          "type": "uint256"
        },
        {
          "internalType": "uint256",
          "name": "_requiredunits",
          "type": "uint256"
        }
      ],
      "name": "BuyEnergy",
      "outputs": [],
      "payable": true,
      "stateMutability": "payable",
      "type": "function"
    },
    {
      "constant": false,
      "inputs": [
        {
          "internalType": "uint256",
          "name": "_energyId",
          "type": "uint256"
        },
        {
          "internalType": "uint256",
          "name": "_requiredunits",
          "type": "uint256"
        }
      ],
      "name": "transferToProsumer",
      "outputs": [],
      "payable": false,
      "stateMutability": "nonpayable",
      "type": "function"
    },
    {
      "constant": true,
      "inputs": [
        {
          "internalType": "uint256",
          "name": "_energyId",
          "type": "uint256"
        }
      ],
      "name": "getAvailableEnergyUnits",
      "outputs": [
        {
          "internalType": "uint256",
          "name": "",
          "type": "uint256"
        }
      ],
      "payable": false,
      "stateMutability": "view",
      "type": "function"
    },
    {
      "constant": true,
      "inputs": [
        {
          "internalType": "address",
          "name": "_consumer",
          "type": "address"
        }
      ],
      "name": "getConsumerBalance",
      "outputs": [
        {
          "internalType": "uint256",
          "name": "",
          "type": "uint256"
        }
      ],
      "payable": false,
      "stateMutability": "view",
      "type": "function"
    }
  ],
  "bytecode": "0x608060405260016000556103e86004556103e860055534801561002157600080fd5b5061186d806100316000396000f3fe6080604052600436106100c25760003560e01c806370f81f181161007f578063c243edce11610059578063c243edce14610683578063e1ab94fc146106bb578063efbb58fb14610720578063f9a4cea514610765576100c2565b806370f81f18146104ad57806389e6f1b8146105b4578063a3a17ac4146105df576100c2565b80630bf53668146100c757806327e235e31461031a5780633ba41bc01461037f5780634ba689e3146103aa5780634f5f2ada146103d5578063503a71031461045e575b600080fd5b3480156100d357600080fd5b50610116600480360360208110156100ea57600080fd5b81019080803573ffffffffffffffffffffffffffffffffffffffff1690602001909291905050506108f6565b60405180888152602001806020018773ffffffffffffffffffffffffffffffffffffffff1673ffffffffffffffffffffffffffffffffffffffff1681526020018060200180602001806020018615151515815260200185810385528b818151815260200191508051906020019080838360005b838110156101a4578082015181840152602081019050610189565b50505050905090810190601f1680156101d15780820380516001836020036101000a031916815260200191505b50858103845289818151815260200191508051906020019080838360005b8381101561020a5780820151818401526020810190506101ef565b50505050905090810190601f1680156102375780820380516001836020036101000a031916815260200191505b50858103835288818151815260200191508051906020019080838360005b83811015610270578082015181840152602081019050610255565b50505050905090810190601f16801561029d5780820380516001836020036101000a031916815260200191505b50858103825287818151815260200191508051906020019080838360005b838110156102d65780820151818401526020810190506102bb565b50505050905090810190601f1680156103035780820380516001836020036101000a031916815260200191505b509b50505050505050505050505060405180910390f35b34801561032657600080fd5b506103696004803603602081101561033d57600080fd5b81019080803573ffffffffffffffffffffffffffffffffffffffff169060200190929190505050610bc5565b6040518082815260200191505060405180910390f35b34801561038b57600080fd5b50610394610bdd565b6040518082815260200191505060405180910390f35b3480156103b657600080fd5b506103bf610be3565b6040518082815260200191505060405180910390f35b3480156103e157600080fd5b5061040e600480360360208110156103f857600080fd5b8101908080359060200190929190505050610be9565b604051808481526020018381526020018273ffffffffffffffffffffffffffffffffffffffff1673ffffffffffffffffffffffffffffffffffffffff168152602001935050505060405180910390f35b34801561046a57600080fd5b506104976004803603602081101561048157600080fd5b8101908080359060200190929190505050610c33565b6040518082815260200191505060405180910390f35b3480156104b957600080fd5b506104e6600480360360208110156104d057600080fd5b8101908080359060200190929190505050610c58565b6040518080602001878152602001861515151581526020018581526020018473ffffffffffffffffffffffffffffffffffffffff1673ffffffffffffffffffffffffffffffffffffffff168152602001838152602001828103825288818151815260200191508051906020019080838360005b83811015610574578082015181840152602081019050610559565b50505050905090810190601f1680156105a15780820380516001836020036101000a031916815260200191505b5097505050505050505060405180910390f35b3480156105c057600080fd5b506105c9610d59565b6040518082815260200191505060405180910390f35b3480156105eb57600080fd5b5061066d6004803603604081101561060257600080fd5b810190808035906020019064010000000081111561061f57600080fd5b82018360208201111561063157600080fd5b8035906020019184600183028401116401000000008311171561065357600080fd5b909192939192939080359060200190929190505050610d5f565b6040518082815260200191505060405180910390f35b6106b96004803603604081101561069957600080fd5b810190808035906020019092919080359060200190929190505050611049565b005b3480156106c757600080fd5b5061070a600480360360208110156106de57600080fd5b81019080803573ffffffffffffffffffffffffffffffffffffffff1690602001909291905050506112c5565b6040518082815260200191505060405180910390f35b34801561072c57600080fd5b506107636004803603604081101561074357600080fd5b81019080803590602001909291908035906020019092919050505061130e565b005b34801561077157600080fd5b506108f4600480360360a081101561078857600080fd5b81019080803590602001906401000000008111156107a557600080fd5b8201836020820111156107b757600080fd5b803590602001918460018302840111640100000000831117156107d957600080fd5b9091929391929390803590602001906401000000008111156107fa57600080fd5b82018360208201111561080c57600080fd5b8035906020019184600183028401116401000000008311171561082e57600080fd5b90919293919293908035906020019064010000000081111561084f57600080fd5b82018360208201111561086157600080fd5b8035906020019184600183028401116401000000008311171561088357600080fd5b9091929391929390803590602001906401000000008111156108a457600080fd5b8201836020820111156108b657600080fd5b803590602001918460018302840111640100000000831117156108d857600080fd5b90919293919293908035151590602001909291905050506113a7565b005b6003602052806000526040600020600091509050806000015490806001018054600181600116156101000203166002900480601f0160208091040260200160405190810160405280929190818152602001828054600181600116156101000203166002900480156109a85780601f1061097d576101008083540402835291602001916109a8565b820191906000526020600020905b81548152906001019060200180831161098b57829003601f168201915b5050505050908060020160009054906101000a900473ffffffffffffffffffffffffffffffffffffffff1690806003018054600181600116156101000203166002900480601f016020809104026020016040519081016040528092919081815260200182805460018160011615610100020316600290048015610a6c5780601f10610a4157610100808354040283529160200191610a6c565b820191906000526020600020905b815481529060010190602001808311610a4f57829003601f168201915b505050505090806004018054600181600116156101000203166002900480601f016020809104026020016040519081016040528092919081815260200182805460018160011615610100020316600290048015610b0a5780601f10610adf57610100808354040283529160200191610b0a565b820191906000526020600020905b815481529060010190602001808311610aed57829003601f168201915b505050505090806005018054600181600116156101000203166002900480601f016020809104026020016040519081016040528092919081815260200182805460018160011615610100020316600290048015610ba85780601f10610b7d57610100808354040283529160200191610ba8565b820191906000526020600020905b815481529060010190602001808311610b8b57829003601f168201915b5050505050908060060160009054906101000a900460ff16905087565b60026020528060005260406000206000915090505481565b60055481565b60045481565b60066020528060005260406000206000915090508060000154908060010154908060020160009054906101000a900473ffffffffffffffffffffffffffffffffffffffff16905083565b6000806001600084815260200190815260200160002090508060010154915050919050565b6001602052806000526040600020600091509050806000018054600181600116156101000203166002900480601f016020809104026020016040519081016040528092919081815260200182805460018160011615610100020316600290048015610d045780601f10610cd957610100808354040283529160200191610d04565b820191906000526020600020905b815481529060010190602001808311610ce757829003601f168201915b5050505050908060010154908060020160009054906101000a900460ff16908060030154908060040160009054906101000a900473ffffffffffffffffffffffffffffffffffffffff16908060050154905086565b60005481565b60006032821015610dbb576040517f08c379a00000000000000000000000000000000000000000000000000000000081526004018080602001828103825260308152602001806118096030913960400191505060405180910390fd5b610dc3611689565b6040518060c0016040528086868080601f016020809104026020016040519081016040528093929190818152602001838380828437600081840152601f19601f8201169050808301925050505050505081526020018481526020016001151581526020016548c27395000081526020013373ffffffffffffffffffffffffffffffffffffffff168152602001600081525090508060016000805481526020019081526020016000206000820151816000019080519060200190610e879291906116d7565b506020820151816001015560408201518160020160006101000a81548160ff0219169083151502179055506060820151816003015560808201518160040160006101000a81548173ffffffffffffffffffffffffffffffffffffffff021916908373ffffffffffffffffffffffffffffffffffffffff16021790555060a082015181600501559050507f272fa30ad6ce6a157a2959aba8e8f3301f7aec6ddf898512d058a5fc6b67109c60005482600001518360200151846080015160405180858152602001806020018481526020018373ffffffffffffffffffffffffffffffffffffffff1673ffffffffffffffffffffffffffffffffffffffff168152602001828103825285818151815260200191508051906020019080838360005b83811015610fc1578082015181840152602081019050610fa6565b50505050905090810190601f168015610fee5780820380516001836020036101000a031916815260200191505b509550505050505060405180910390a1600080815480929190600101919050557fef4f14392c00e2c45c70a390b1afd9095dc3576e00439d4e6ddf4839a55a405560405160405180910390a280602001519150509392505050565b600115156001600084815260200190815260200160002060020160009054906101000a900460ff161515146110e6576040517f08c379a00000000000000000000000000000000000000000000000000000000081526004018080602001828103825260208152602001807f726571756972656420756e69747320617265206e6f7420617661696c61626c6581525060200191505060405180910390fd5b600160008381526020019081526020016000206003015481023414611173576040517f08c379a00000000000000000000000000000000000000000000000000000000081526004018080602001828103825260128152602001807f496e73756666696369656e742066756e6473000000000000000000000000000081525060200191505060405180910390fd5b61117b611757565b60405180606001604052808481526020018381526020013373ffffffffffffffffffffffffffffffffffffffff16815250905080600660006005548152602001908152602001600020600082015181600001556020820151816001015560408201518160020160006101000a81548173ffffffffffffffffffffffffffffffffffffffff021916908373ffffffffffffffffffffffffffffffffffffffff16021790555090505060056000815480929190600101919050555061123e838361130e565b8160016000858152602001908152602001600020600101540360016000858152602001908152602001600020600501819055506032600160008581526020019081526020016000206005015410156112c05760006001600085815260200190815260200160002060020160006101000a81548160ff0219169083151502179055505b505050565b6000600260008373ffffffffffffffffffffffffffffffffffffffff1673ffffffffffffffffffffffffffffffffffffffff168152602001908152602001600020549050919050565b6001600083815260200190815260200160002060040160009054906101000a900473ffffffffffffffffffffffffffffffffffffffff1673ffffffffffffffffffffffffffffffffffffffff166108fc826001600086815260200190815260200160002060030154029081150290604051600060405180830381858888f193505050501580156113a2573d6000803e3d6000fd5b505050565b6113af61178e565b6040518060e0016040528060045481526020018b8b8080601f016020809104026020016040519081016040528093929190818152602001838380828437600081840152601f19601f8201169050808301925050505050505081526020013373ffffffffffffffffffffffffffffffffffffffff16815260200189898080601f016020809104026020016040519081016040528093929190818152602001838380828437600081840152601f19601f82011690508083019250505050505050815260200187878080601f016020809104026020016040519081016040528093929190818152602001838380828437600081840152601f19601f82011690508083019250505050505050815260200185858080601f016020809104026020016040519081016040528093929190818152602001838380828437600081840152601f19601f820116905080830192505050505050508152602001831515815250905080600360003373ffffffffffffffffffffffffffffffffffffffff1673ffffffffffffffffffffffffffffffffffffffff1681526020019081526020016000206000820151816000015560208201518160010190805190602001906115749291906116d7565b5060408201518160020160006101000a81548173ffffffffffffffffffffffffffffffffffffffff021916908373ffffffffffffffffffffffffffffffffffffffff16021790555060608201518160030190805190602001906115d89291906116d7565b5060808201518160040190805190602001906115f59291906116d7565b5060a08201518160050190805190602001906116129291906116d7565b5060c08201518160060160006101000a81548160ff0219169083151502179055509050507f4ccc53582e1e8019e8f85b015baac83b1d5665ea6facd746491036ea80e3893760046000815480929190600101919050556040518082815260200191505060405180910390a150505050505050505050565b6040518060c00160405280606081526020016000815260200160001515815260200160008152602001600073ffffffffffffffffffffffffffffffffffffffff168152602001600081525090565b828054600181600116156101000203166002900490600052602060002090601f016020900481019282601f1061171857805160ff1916838001178555611746565b82800160010185558215611746579182015b8281111561174557825182559160200191906001019061172a565b5b50905061175391906117e3565b5090565b60405180606001604052806000815260200160008152602001600073ffffffffffffffffffffffffffffffffffffffff1681525090565b6040518060e001604052806000815260200160608152602001600073ffffffffffffffffffffffffffffffffffffffff1681526020016060815260200160608152602001606081526020016000151581525090565b61180591905b808211156118015760008160009055506001016117e9565b5090565b9056fe4e6f7420656e6f75676820656e65726779756e69747320746f206265636f6d65206163746976652070726f73756d6572a265627a7a72315820f7a5dd228f69c8934b05e562e74ba9f1efe35234b49c4aae4dde55931d85af4564736f6c63430005100032",
  "source": "pragma solidity >=0.4.25 <0.7.0;\r\n\r\ncontract CleanEnergyVersion1 {\r\n\r\n  //// enhanced code comment \r\n \r\n  // CleanEnery to be sold on P2P Energy Network\r\n  struct EnergyProvision {\r\n    string energyType; //type of Renewable Energy\r\n    uint   energyUnit; //qty of energy unit available and to be sold\r\n    bool isActive; // min 50 inuts of clean energy is required to be active on portal to sell\r\n    uint256 unitprice; // 8*10^13wei(INR2) is the set unit price for first 50 units (once crosses 100 units of purchase at a time, the price/unit is 4*10^13wei)\r\n    address payable prosumer; // producer/seller of the CleanEnergy\r\n    uint256 unitbalance;// unit balance available after any point of selling\r\n  }\r\n\r\n  //declaring the energyid with an assigned value\r\n  uint256 public energyId = 1;\r\n\r\n  // mapping of energyId to EnergyType object\r\n  mapping(uint256 => EnergyProvision) public availableEnergy;\r\n  \r\n  //user/buyer/consumer registration\r\n  \r\n  struct Consumer {\r\n      uint256 consumerid;\r\n      string name;\r\n      address consumer;\r\n      string location;\r\n      string mobile;\r\n      string email;\r\n      bool isProsumer;\r\n      \r\n  }\r\n  //mapping address to balance\r\n  mapping (address => uint) public balances;\r\n  \r\n  //mapping address of consumer to struct Details\r\n  \r\n  mapping(address=>Consumer) public consumers;\r\n  \r\n  uint256 public consumerid = 1000;\r\n  //returning a consunerid in Dapp after successful registration\r\n  event returnconsumerid(uint256 id);\r\n  \r\n  function ConsumerRegistration(string calldata _name, string calldata _location, string calldata _mobile, string calldata _email, bool _isprosumer) external  {\r\n      Consumer memory newConsumer = Consumer(consumerid, _name, msg.sender, _location, _mobile, _email, _isprosumer);\r\n      consumers[msg.sender] = newConsumer;\r\n      emit returnconsumerid(consumerid++);\r\n  }\r\n  \r\n\r\n  // Details of a energy selling\r\n  struct Billing {\r\n    uint256 energyId;\r\n    uint256 energyUnit;//energy going to Consume from the prosumer\r\n    address consumer;//buyer\r\n  }\r\n\r\n  uint256 public BillingId = 1000;\r\n\r\n  // mapping of energyId to Billing object\r\n  mapping(uint256 => Billing) public billingDetails;\r\n\r\n  // This event is emitted when a new EnergyQty is put up for sale\r\n  event NewEnergy (\r\n    uint256 indexed energyId\r\n  );\r\n\r\n  // This event is emitted when a NewBilling is made\r\n  event NewBilling (\r\n    uint256 indexed energyId,\r\n    uint256 indexed billingId\r\n  );\r\n  \r\n  \r\n  // creating an event which to emit the details of the CleanEngery availablity by the prosumer\r\n  event getEnergyDetails(uint energyIdId,string energyType, uint energyUnit , address prosumer);\r\n  \r\n  // creating an event to know the balance of engery units available for the prosumer before and after renting\r\n  event getOwnerBalance(address prosumerAccount, uint balanceEnergyUnits);\r\n  \r\n\r\n  function cleanenergyAvailable(string calldata _engerytype,uint256 _energyUnit) external returns (uint) {\r\n    require (_energyUnit >= 50, 'Not enough energyunits to become active prosumer');\r\n\r\n   EnergyProvision memory energyAvailable = EnergyProvision(_engerytype, _energyUnit, true, 8*10**13, msg.sender, 0); \r\n \r\n    // Persist `energy` object to the \"permanent\" storage\r\n    availableEnergy[energyId] = energyAvailable;\r\n    \r\n   ////emiting energy details available with the prosumer\r\n    emit getEnergyDetails(energyId,energyAvailable.energyType, energyAvailable.energyUnit, energyAvailable.prosumer);\r\n\r\n    // emit an event to notify the clients\r\n    emit NewEnergy(energyId++);\r\n    \r\n    return energyAvailable.energyUnit;\r\n   \r\n  }\r\n  \r\n   function BuyEnergy(uint _energyId, uint _requiredunits) payable external {\r\n        //test whether consumer has balance in his prosumerAccount\r\n        \r\n    //   uint balance = getConsumerBalance(msg.sender);\r\n    //   require(balance > 0,'Consumer has 0 balance in his account');\r\n       \r\n       \r\n        // check if prosumer of energyID is active\r\n        require(availableEnergy[_energyId].isActive == true,\"required units are not available\");\r\n        //check if enough balance is available in Consumer ether address to buy required units\r\n        require(msg.value == ( _requiredunits * availableEnergy[_energyId].unitprice),\"Insufficient funds\");\r\n       //                           40 * 8*10**13\r\n     //check if consumer is buying at least 100 energy unit to confirm the new unitprice as 4*10^13 wei\r\n     //if (_requiredunits.availableEnergy[_energyId] >= 100){unitprice._requiredunits == 4*10**13;}\r\n     \r\n     \r\n        //store billing details \r\n        Billing memory tempBilling = Billing (\r\n            _energyId,\r\n            _requiredunits,\r\n             msg.sender\r\n            );\r\n        billingDetails[BillingId] = tempBilling;\r\n        BillingId++;\r\n        \r\n        transferToProsumer(_energyId, _requiredunits);\r\n        //send msg to the smartmeter connector to release the energy to the consumer after money is transfered to the prosumer\r\n        \r\n        // updating unitbalance for selling for the prosumer\r\n        availableEnergy[_energyId].unitbalance = (availableEnergy[_energyId].energyUnit - _requiredunits) ;\r\n        if (availableEnergy[_energyId].unitbalance < 50) {\r\n           availableEnergy[_energyId].isActive = false; }\r\n        \r\n    }\r\n    // once time is complete, smart contract will transfer that money to prosuner\r\n    function transferToProsumer(uint _energyId, uint _requiredunits) public {\r\n        //send money to prosumer\r\n        availableEnergy[_energyId].prosumer.transfer((availableEnergy[_energyId].unitprice)*_requiredunits);\r\n      \r\n    }\r\n    //for getting energyunits from energyid\r\n    function getAvailableEnergyUnits(uint256 _energyId) external view returns(uint) {\r\n\r\n      EnergyProvision storage prosumerEnergy = availableEnergy[_energyId];\r\n\t\t  return prosumerEnergy.energyUnit;\r\n\t}\r\n\t\r\n\t\r\n\t\r\n\t//for checking enough balance in consumer prosumerAccount\r\n\tfunction getConsumerBalance(address _consumer) external view returns(uint) {\r\n     \t\t  return  balances[_consumer];\r\n\t}\r\n\t\r\n\t\r\n}",
  "sourcePath": "D:/Blockchain/EMURGO/L2-Ethereum/Ethereum-Final project/contracts/CleanEnergyVersion1.sol",
  "compiler": {
    "name": "solc",
    "version": "0.5.16+commit.9c3226ce.Emscripten.clang"
  },
  "schemaVersion": "3.0.22",
  "updatedAt": "2020-08-15T03:15:06.300Z",
  "networkType": "ethereum",
  "devdoc": {
    "methods": {}
  },
  "userdoc": {
    "methods": {}
  }
}